:4000000080673030303030307e3030307e3030307e3030307e3030307e3030307e3030307d07187e7d06cd7e7e3030307e3030307e3030307e3030307e3030307e30303029
:400040007e3030307e3030307e3030307e3030307e3030307e3030307e3030307e3030307e3030307e303030711062fa0062e38770ef50202850402850602841fefb5080ba
:400080004e55f80055f900711062e01270ef62e338627105627505627905627d0562d10750004e62d30762d00062d50062d40071c07c031962d0005003571708285305181f
:4000c000750900284b5105800475090062e300082860d574a04b1875090008285305187509000828a01c53041875090008283f054705ffb0065dd57460d5187a04bfeb8f02
:40010000c9187509000828530450003f054705ffb0085dd57460d550007a04bfef188faa18711043e32070ef62e000711062e01343e78070ef62e2007c07de8fff50107f29
:40014000303030303030303030303030303030303030303030303030303030303030303030303030303030303030303030303030303030303030303030303030303030307f
:400180003030303030303030303030303030303030303030303030303030303030303030230021fa227d270025fa267d6028660063056500e600e700d600b000b100b20008
:4001c000b333b433b500b600b855b900ba10bb33bc33bd00be00c000c100c220c333c433c500c600c855c900ca30cb33cc33cd00ce006c006d006e006f00ff20292111223a
:400200004024292511264061006900600062006733683363006600d100d300d000d200e12fe200dfc7de02dd00e700ff71106200006201ff70ef6203ff6202007110620239
:400240000062030070ef62010071106204076205f870ef6207f8620600711062060062070070ef620500711062087f62090070ef620b00620a007110620a00620b0070ef04
:400280006209007110620c00620d0070ef620f00620e007110620e00620f0070ef620d00711062100062110070ef621300621200711062120062130070ef62110071106238
:4002c000140062150070ef621700621600711062160062170070ef621500711062180062190070ef621b00621a007110621a00621b0070ef6219007110621c00621d0070cb
:40030000ef621f00621e007110621e00621f0070ef621d0070ef7f0aaa55000055010055027f5503007c032c7c022c7f1070ef500067500157a07c0347500167500157fb9f
:400340007c034770ef207f380210084f56fc00d00456fc01182070ef62e30010082839ffa01f4f48fc01a003711054fd18207509001008284f59fd610018207509008fd76b
:4003800038fc703f71c07f50018003500062d0002900a0062e000480042600fb51006004703f71c07f62d00036000451006004703f71c07f62d00051002104a0035001700e
:4003c0003f71c07f50018003500062d0002900a0062e000280042600fd51006004703f71c07f62d00036000251006004703f71c07f62d00051002102a0035001703f71c006
:400400007f50018003500062d0002900a0062e000180042600fe51006004703f71c07f62d00036000151006004703f71c07f62d00051002101a0035001703f71c07f0810a0
:4004400028b00420187f9044201875dff2748fef303132333435363738394142434445460867676767210fffe7902118210fffe0901a7f4b9fea5b9fe77f70bf60d3520060
:40048000a0069008758ff8703f71c07f90650867676767210f903b18210f40404090337f90510867676767210f900918210f40404090017f0862d0002601805101600818ac
:4004c000210f29102a016008530140218f530160087f0862d0002601802e01205101600818210f29302a01600853014021af530160087f0862d00026018051016008260201
:40050000f051027110600870ef2e014051016008401057ff2e01505101600840405d08082601c0510160084040402e01505101600840402601c051016008182108a0047922
:40054000bfd3202e027f51027110600870ef187f62d0002602802e027f2603805102711060085103600970ef50fa906750fa906350039f405052905b50039f389063906113
:40058000905f50039f2e505a904950029f26505a904150089f0a505a903950019f02505a903150069efa500e9ef6502c9ef250089eee500c9eea50039ee6505a90157f806d
:4005c000c094d4210310fff74f03ff209ed2703f71c07f900c78bffc7f08193a7c010101010871105de070ef21073905d006ffe978bffe187f4f1052fd59fc703f71c09fa9
:40060000c2203dfa00b005500080113dfa06d00752fa15fa8006500617fa059e6f7bfbbfe2703f71c07f4f52fd210308ff9103fc9e6e3dfa00b005502080133dfa09d009ba
:4006400052fa7856fa00800617fa0850079e3d18787bfbbfd7703f71c07f4f080850409e3f56000156010852003b01d0055000800350ff9e177b01bfef77003d0009bfe553
:400680001818500c9e1a703f71c07f0010181c1e1f1f001008040201004f3803540250409dfe56000056010852003d0200b005ffda8003ffdd9dd57b01bfee77003d000744
:4006c000bfe438fd500c9dd8703f71c07f7e43e1027f41e1fd7f4327017f4127fe7f60257f60267f5d267f4f5d26085d27084127fe71105d250862250070ef5d245d26088e
:400700005200602671105202602570ef520160271838fd703f71c07f7c09cc7e43e1017f41e1fe7f4323017f4123fe7f60217f60227f5d227f4f5d22085d23084123fe7199
:40074000105d210862210070ef5d205d22085200602271105202602170ef520160231838fd703f71c07f4c6f6e676573742054696d653a00417665726167652054696d65c3
:400780003a0053686f72746573742054696d653a0049646c650053656e7369746976697479204d6f6465004163637572616379204d6f6465004d6561737572656d656e7496
:4007c000204d6f6465004d656d6f7279204d6f646500303132333435363738393a2e55800371019f379ee79d679d659c189bd99b9a55af0091c070f93cb50f9287d0013cd5
:40080000800091f69289a0253c800191fa9280a0213c800291fe9277a01d3c80039202926ea0193c800492069265a1015580018fc45580028fbf5580038fba917970f93c88
:40084000b500a00b3cb50fd0085580048fa7800176af9e82902bc03776a5769c70fd3c9c0ba0017693559c0170fd3c933da001768a55930170fd3c8a3da0017681558a01b5
:400880007f813470f93cb500b0013cb50f7e9e4a70fd3caf01a019b02f509c74509374508a74508174819570f99fd6cfa4df46518153a653a953ac518a53a753aa53ad51e3
:4008c0009353a853ab53ae70f951813aa6c023518a3aa7c01d51933aa8c01770f951813aa9d00f518a3aa7d00951933aa8d0038029518153a604ac518a53a704ad5193532b
:40090000a804ae8f95518153a904ac518a53aa04ad519353ab04ae8f81518104ac518a04ad519304ae8f735580048ec95580018f51decd51ac53b155b209805551b153ac70
:4009400051ad53b155b209804851b153ad51ae53b155b209803b51b153ae8f26c090dea0500057019c5d500a9b228f16c068de90500057019c4d500a9b128f06c064de80a5
:40098000500057019c3d500a9b028ef6cfcdde7055b00070fb55b4086bb16bb05fb3b051b012b253b0d0095fb0b326b1fe80042eb1017ab4bfe355b5005d082180aff89024
:4009c0001170f95d082180bffb90047f76b57f9d577f9d507f500057009be8500757669a5d500057009bdc500757829a51500157069bd0500757749a457f500157009bc314
:400a0000500757919a387f500057009bb6500757969a2b7f500057009ba9500757a79a1e7f500057009b9c500757b59a117f500057009b8f500757c69a047f500057009b20
:400a4000825181fd8d9a19500057029b76500afd819a0d500057039b6a518afd759a01500057059b5e500afd6999f5500057069b525193fd5d99e9500057089b46500bfde0
:400a80005199dd7f500057009b3951b599d27f518053b32101997051b36a53b32101992a51b36a210198e67f8fffff00303030303030303030303030303030303030303050
:400ac00030303030303030303030303030303030303030303030303030303030303030303030303030303030303030303030303030303030303030303030303030303030f6
:400b000030303030303030303030303030303030303030303030303030303030303030303030303030303030303030303030303030303030303030303030303030303030b5
:400b40003030303030303030303030303030303030303030303030303030303030303030303030303030303030303030303030303030303030303030303030303030303075
:400b80003030303030303030303030303030303030303030303030303030303030303030303030303030303030303030303030303030303030303030303030303030303035
:020000040010ea
:020000040020da
:02000000aedc74
:00000001ff
